{
  "_format": "hh-sol-artifact-1",
  "contractName": "Domains",
  "sourceName": "contracts/Domains.sol",
  "abi": [
    {
      "inputs": [
        {
          "internalType": "string",
          "name": "_tld",
          "type": "string"
        }
      ],
      "stateMutability": "payable",
      "type": "constructor"
    },
    {
      "inputs": [],
      "name": "AlreadyRegistered",
      "type": "error"
    },
    {
      "inputs": [
        {
          "internalType": "string",
          "name": "name",
          "type": "string"
        }
      ],
      "name": "InvalidName",
      "type": "error"
    },
    {
      "inputs": [],
      "name": "Unauthorized",
      "type": "error"
    },
    {
      "anonymous": false,
      "inputs": [
        {
          "indexed": true,
          "internalType": "address",
          "name": "owner",
          "type": "address"
        },
        {
          "indexed": true,
          "internalType": "address",
          "name": "approved",
          "type": "address"
        },
        {
          "indexed": true,
          "internalType": "uint256",
          "name": "tokenId",
          "type": "uint256"
        }
      ],
      "name": "Approval",
      "type": "event"
    },
    {
      "anonymous": false,
      "inputs": [
        {
          "indexed": true,
          "internalType": "address",
          "name": "owner",
          "type": "address"
        },
        {
          "indexed": true,
          "internalType": "address",
          "name": "operator",
          "type": "address"
        },
        {
          "indexed": false,
          "internalType": "bool",
          "name": "approved",
          "type": "bool"
        }
      ],
      "name": "ApprovalForAll",
      "type": "event"
    },
    {
      "anonymous": false,
      "inputs": [
        {
          "indexed": true,
          "internalType": "address",
          "name": "from",
          "type": "address"
        },
        {
          "indexed": true,
          "internalType": "address",
          "name": "to",
          "type": "address"
        },
        {
          "indexed": true,
          "internalType": "uint256",
          "name": "tokenId",
          "type": "uint256"
        }
      ],
      "name": "Transfer",
      "type": "event"
    },
    {
      "inputs": [
        {
          "internalType": "address",
          "name": "to",
          "type": "address"
        },
        {
          "internalType": "uint256",
          "name": "tokenId",
          "type": "uint256"
        }
      ],
      "name": "approve",
      "outputs": [],
      "stateMutability": "nonpayable",
      "type": "function"
    },
    {
      "inputs": [
        {
          "internalType": "address",
          "name": "owner",
          "type": "address"
        }
      ],
      "name": "balanceOf",
      "outputs": [
        {
          "internalType": "uint256",
          "name": "",
          "type": "uint256"
        }
      ],
      "stateMutability": "view",
      "type": "function"
    },
    {
      "inputs": [
        {
          "internalType": "string",
          "name": "",
          "type": "string"
        }
      ],
      "name": "domains",
      "outputs": [
        {
          "internalType": "address",
          "name": "",
          "type": "address"
        }
      ],
      "stateMutability": "view",
      "type": "function"
    },
    {
      "inputs": [
        {
          "internalType": "string",
          "name": "name",
          "type": "string"
        }
      ],
      "name": "getAddress",
      "outputs": [
        {
          "internalType": "address",
          "name": "",
          "type": "address"
        }
      ],
      "stateMutability": "view",
      "type": "function"
    },
    {
      "inputs": [],
      "name": "getAllNames",
      "outputs": [
        {
          "internalType": "string[]",
          "name": "",
          "type": "string[]"
        }
      ],
      "stateMutability": "view",
      "type": "function"
    },
    {
      "inputs": [
        {
          "internalType": "uint256",
          "name": "tokenId",
          "type": "uint256"
        }
      ],
      "name": "getApproved",
      "outputs": [
        {
          "internalType": "address",
          "name": "",
          "type": "address"
        }
      ],
      "stateMutability": "view",
      "type": "function"
    },
    {
      "inputs": [
        {
          "internalType": "string",
          "name": "name",
          "type": "string"
        }
      ],
      "name": "getRecord",
      "outputs": [
        {
          "internalType": "string",
          "name": "",
          "type": "string"
        }
      ],
      "stateMutability": "view",
      "type": "function"
    },
    {
      "inputs": [
        {
          "internalType": "address",
          "name": "owner",
          "type": "address"
        },
        {
          "internalType": "address",
          "name": "operator",
          "type": "address"
        }
      ],
      "name": "isApprovedForAll",
      "outputs": [
        {
          "internalType": "bool",
          "name": "",
          "type": "bool"
        }
      ],
      "stateMutability": "view",
      "type": "function"
    },
    {
      "inputs": [
        {
          "internalType": "string",
          "name": "name",
          "type": "string"
        }
      ],
      "name": "isDomainValid",
      "outputs": [
        {
          "internalType": "bool",
          "name": "",
          "type": "bool"
        }
      ],
      "stateMutability": "pure",
      "type": "function"
    },
    {
      "inputs": [],
      "name": "isOwner",
      "outputs": [
        {
          "internalType": "bool",
          "name": "",
          "type": "bool"
        }
      ],
      "stateMutability": "view",
      "type": "function"
    },
    {
      "inputs": [],
      "name": "name",
      "outputs": [
        {
          "internalType": "string",
          "name": "",
          "type": "string"
        }
      ],
      "stateMutability": "view",
      "type": "function"
    },
    {
      "inputs": [
        {
          "internalType": "uint256",
          "name": "",
          "type": "uint256"
        }
      ],
      "name": "names",
      "outputs": [
        {
          "internalType": "string",
          "name": "",
          "type": "string"
        }
      ],
      "stateMutability": "view",
      "type": "function"
    },
    {
      "inputs": [],
      "name": "owner",
      "outputs": [
        {
          "internalType": "address payable",
          "name": "",
          "type": "address"
        }
      ],
      "stateMutability": "view",
      "type": "function"
    },
    {
      "inputs": [
        {
          "internalType": "uint256",
          "name": "tokenId",
          "type": "uint256"
        }
      ],
      "name": "ownerOf",
      "outputs": [
        {
          "internalType": "address",
          "name": "",
          "type": "address"
        }
      ],
      "stateMutability": "view",
      "type": "function"
    },
    {
      "inputs": [
        {
          "internalType": "string",
          "name": "name",
          "type": "string"
        }
      ],
      "name": "price",
      "outputs": [
        {
          "internalType": "uint256",
          "name": "",
          "type": "uint256"
        }
      ],
      "stateMutability": "pure",
      "type": "function"
    },
    {
      "inputs": [
        {
          "internalType": "string",
          "name": "",
          "type": "string"
        }
      ],
      "name": "records",
      "outputs": [
        {
          "internalType": "string",
          "name": "",
          "type": "string"
        }
      ],
      "stateMutability": "view",
      "type": "function"
    },
    {
      "inputs": [
        {
          "internalType": "string",
          "name": "name",
          "type": "string"
        }
      ],
      "name": "register",
      "outputs": [],
      "stateMutability": "payable",
      "type": "function"
    },
    {
      "inputs": [
        {
          "internalType": "address",
          "name": "from",
          "type": "address"
        },
        {
          "internalType": "address",
          "name": "to",
          "type": "address"
        },
        {
          "internalType": "uint256",
          "name": "tokenId",
          "type": "uint256"
        }
      ],
      "name": "safeTransferFrom",
      "outputs": [],
      "stateMutability": "nonpayable",
      "type": "function"
    },
    {
      "inputs": [
        {
          "internalType": "address",
          "name": "from",
          "type": "address"
        },
        {
          "internalType": "address",
          "name": "to",
          "type": "address"
        },
        {
          "internalType": "uint256",
          "name": "tokenId",
          "type": "uint256"
        },
        {
          "internalType": "bytes",
          "name": "_data",
          "type": "bytes"
        }
      ],
      "name": "safeTransferFrom",
      "outputs": [],
      "stateMutability": "nonpayable",
      "type": "function"
    },
    {
      "inputs": [
        {
          "internalType": "address",
          "name": "operator",
          "type": "address"
        },
        {
          "internalType": "bool",
          "name": "approved",
          "type": "bool"
        }
      ],
      "name": "setApprovalForAll",
      "outputs": [],
      "stateMutability": "nonpayable",
      "type": "function"
    },
    {
      "inputs": [
        {
          "internalType": "string",
          "name": "name",
          "type": "string"
        },
        {
          "internalType": "string",
          "name": "record",
          "type": "string"
        }
      ],
      "name": "setRecord",
      "outputs": [],
      "stateMutability": "nonpayable",
      "type": "function"
    },
    {
      "inputs": [
        {
          "internalType": "bytes4",
          "name": "interfaceId",
          "type": "bytes4"
        }
      ],
      "name": "supportsInterface",
      "outputs": [
        {
          "internalType": "bool",
          "name": "",
          "type": "bool"
        }
      ],
      "stateMutability": "view",
      "type": "function"
    },
    {
      "inputs": [],
      "name": "symbol",
      "outputs": [
        {
          "internalType": "string",
          "name": "",
          "type": "string"
        }
      ],
      "stateMutability": "view",
      "type": "function"
    },
    {
      "inputs": [],
      "name": "tld",
      "outputs": [
        {
          "internalType": "string",
          "name": "",
          "type": "string"
        }
      ],
      "stateMutability": "view",
      "type": "function"
    },
    {
      "inputs": [
        {
          "internalType": "uint256",
          "name": "tokenId",
          "type": "uint256"
        }
      ],
      "name": "tokenURI",
      "outputs": [
        {
          "internalType": "string",
          "name": "",
          "type": "string"
        }
      ],
      "stateMutability": "view",
      "type": "function"
    },
    {
      "inputs": [
        {
          "internalType": "address",
          "name": "from",
          "type": "address"
        },
        {
          "internalType": "address",
          "name": "to",
          "type": "address"
        },
        {
          "internalType": "uint256",
          "name": "tokenId",
          "type": "uint256"
        }
      ],
      "name": "transferFrom",
      "outputs": [],
      "stateMutability": "nonpayable",
      "type": "function"
    },
    {
      "inputs": [],
      "name": "withdraw",
      "outputs": [],
      "stateMutability": "nonpayable",
      "type": "function"
    }
  ],
  "bytecode": "0x6080604052604051806108a0016040528061086b81526020016200576a61086b91396009908051906020019062000038929190620002ac565b506040518060400160405280600d81526020017f3c2f746578743e3c2f7376673e00000000000000000000000000000000000000815250600a908051906020019062000086929190620002ac565b5060405162005fd538038062005fd58339818101604052810190620000ac9190620004f9565b6040518060400160405280601481526020017f4173204675636b204e616d6520536572766963650000000000000000000000008152506040518060400160405280600281526020017f4146000000000000000000000000000000000000000000000000000000000000815250816000908051906020019062000130929190620002ac565b50806001908051906020019062000149929190620002ac565b50505033600e60006101000a81548173ffffffffffffffffffffffffffffffffffffffff021916908373ffffffffffffffffffffffffffffffffffffffff1602179055508060089080519060200190620001a5929190620002ac565b50620001d6604051806060016040528060218152602001620057496021913982620001dd60201b62001d341760201c565b5062000647565b6200027f8282604051602401620001f6929190620005a7565b6040516020818303038152906040527f4b5c4277000000000000000000000000000000000000000000000000000000007bffffffffffffffffffffffffffffffffffffffffffffffffffffffff19166020820180517bffffffffffffffffffffffffffffffffffffffffffffffffffffffff83818316178352505050506200028360201b60201c565b5050565b60008151905060006a636f6e736f6c652e6c6f679050602083016000808483855afa5050505050565b828054620002ba9062000611565b90600052602060002090601f016020900481019282620002de57600085556200032a565b82601f10620002f957805160ff19168380011785556200032a565b828001600101855582156200032a579182015b82811115620003295782518255916020019190600101906200030c565b5b5090506200033991906200033d565b5090565b5b80821115620003585760008160009055506001016200033e565b5090565b6000604051905090565b600080fd5b600080fd5b600080fd5b600080fd5b6000601f19601f8301169050919050565b7f4e487b7100000000000000000000000000000000000000000000000000000000600052604160045260246000fd5b620003c5826200037a565b810181811067ffffffffffffffff82111715620003e757620003e66200038b565b5b80604052505050565b6000620003fc6200035c565b90506200040a8282620003ba565b919050565b600067ffffffffffffffff8211156200042d576200042c6200038b565b5b62000438826200037a565b9050602081019050919050565b60005b838110156200046557808201518184015260208101905062000448565b8381111562000475576000848401525b50505050565b6000620004926200048c846200040f565b620003f0565b905082815260208101848484011115620004b157620004b062000375565b5b620004be84828562000445565b509392505050565b600082601f830112620004de57620004dd62000370565b5b8151620004f08482602086016200047b565b91505092915050565b60006020828403121562000512576200051162000366565b5b600082015167ffffffffffffffff8111156200053357620005326200036b565b5b6200054184828501620004c6565b91505092915050565b600081519050919050565b600082825260208201905092915050565b600062000573826200054a565b6200057f818562000555565b93506200059181856020860162000445565b6200059c816200037a565b840191505092915050565b60006040820190508181036000830152620005c3818562000566565b90508181036020830152620005d9818462000566565b90509392505050565b7f4e487b7100000000000000000000000000000000000000000000000000000000600052602260045260246000fd5b600060028204905060018216806200062a57607f821691505b60208210811415620006415762000640620005e2565b5b50919050565b6150f280620006576000396000f3fe60806040526004361061019c5760003560e01c80636352211e116100ec578063bf40fac11161008a578063e985e9c511610064578063e985e9c514610624578063f2c298be14610661578063fb825e5f1461067d578063fe2c6198146106a85761019c565b8063bf40fac114610581578063c1880a98146105be578063c87b56dd146105e75761019c565b80638f32d59b116100c65780638f32d59b146104d957806395d89b4114610504578063a22cb4651461052f578063b88d4fde146105585761019c565b80636352211e1461043457806370a08231146104715780638da5cb5b146104ae5761019c565b8063264492351161015957806342842e0e1161013357806342842e0e146103545780634622ab031461037d578063479919bc146103ba578063541e771d146103f75761019c565b806326449235146102d55780632d551432146103125780633ccfd60b1461033d5761019c565b806301ffc9a7146101a157806306fdde03146101de578063081812fc14610209578063095ea7b31461024657806311dd88451461026f57806323b872dd146102ac575b600080fd5b3480156101ad57600080fd5b506101c860048036038101906101c391906133f3565b6106e5565b6040516101d5919061343b565b60405180910390f35b3480156101ea57600080fd5b506101f36107c7565b60405161020091906134ef565b60405180910390f35b34801561021557600080fd5b50610230600480360381019061022b9190613547565b610859565b60405161023d91906135b5565b60405180910390f35b34801561025257600080fd5b5061026d600480360381019061026891906135fc565b6108de565b005b34801561027b57600080fd5b50610296600480360381019061029191906136a1565b6109f6565b6040516102a391906134ef565b60405180910390f35b3480156102b857600080fd5b506102d360048036038101906102ce91906136ee565b610aa9565b005b3480156102e157600080fd5b506102fc60048036038101906102f79190613871565b610b09565b60405161030991906135b5565b60405180910390f35b34801561031e57600080fd5b50610327610b52565b60405161033491906134ef565b60405180910390f35b34801561034957600080fd5b50610352610be0565b005b34801561036057600080fd5b5061037b600480360381019061037691906136ee565b610ca6565b005b34801561038957600080fd5b506103a4600480360381019061039f9190613547565b610cc6565b6040516103b191906134ef565b60405180910390f35b3480156103c657600080fd5b506103e160048036038101906103dc91906136a1565b610d66565b6040516103ee919061343b565b60405180910390f35b34801561040357600080fd5b5061041e60048036038101906104199190613871565b610e1a565b60405161042b91906134ef565b60405180910390f35b34801561044057600080fd5b5061045b60048036038101906104569190613547565b610ed0565b60405161046891906135b5565b60405180910390f35b34801561047d57600080fd5b50610498600480360381019061049391906138ba565b610f82565b6040516104a591906138f6565b60405180910390f35b3480156104ba57600080fd5b506104c361103a565b6040516104d09190613932565b60405180910390f35b3480156104e557600080fd5b506104ee611060565b6040516104fb919061343b565b60405180910390f35b34801561051057600080fd5b506105196110b8565b60405161052691906134ef565b60405180910390f35b34801561053b57600080fd5b5061055660048036038101906105519190613979565b61114a565b005b34801561056457600080fd5b5061057f600480360381019061057a9190613a5a565b611160565b005b34801561058d57600080fd5b506105a860048036038101906105a391906136a1565b6111c2565b6040516105b591906135b5565b60405180910390f35b3480156105ca57600080fd5b506105e560048036038101906105e09190613add565b61120d565b005b3480156105f357600080fd5b5061060e60048036038101906106099190613547565b6112e8565b60405161061b91906134ef565b60405180910390f35b34801561063057600080fd5b5061064b60048036038101906106469190613b5e565b61143a565b604051610658919061343b565b60405180910390f35b61067b600480360381019061067691906136a1565b6114ce565b005b34801561068957600080fd5b50610692611ab0565b60405161069f9190613caa565b60405180910390f35b3480156106b457600080fd5b506106cf60048036038101906106ca91906136a1565b611c8e565b6040516106dc91906138f6565b60405180910390f35b60007f80ac58cd000000000000000000000000000000000000000000000000000000007bffffffffffffffffffffffffffffffffffffffffffffffffffffffff1916827bffffffffffffffffffffffffffffffffffffffffffffffffffffffff191614806107b057507f5b5e139f000000000000000000000000000000000000000000000000000000007bffffffffffffffffffffffffffffffffffffffffffffffffffffffff1916827bffffffffffffffffffffffffffffffffffffffffffffffffffffffff1916145b806107c057506107bf82611dd0565b5b9050919050565b6060600080546107d690613cfb565b80601f016020809104026020016040519081016040528092919081815260200182805461080290613cfb565b801561084f5780601f106108245761010080835404028352916020019161084f565b820191906000526020600020905b81548152906001019060200180831161083257829003601f168201915b5050505050905090565b600061086482611e3a565b6108a3576040517f08c379a000000000000000000000000000000000000000000000000000000000815260040161089a90613d9f565b60405180910390fd5b6004600083815260200190815260200160002060009054906101000a900473ffffffffffffffffffffffffffffffffffffffff169050919050565b60006108e982610ed0565b90508073ffffffffffffffffffffffffffffffffffffffff168373ffffffffffffffffffffffffffffffffffffffff16141561095a576040517f08c379a000000000000000000000000000000000000000000000000000000000815260040161095190613e31565b60405180910390fd5b8073ffffffffffffffffffffffffffffffffffffffff16610979611ea6565b73ffffffffffffffffffffffffffffffffffffffff1614806109a857506109a7816109a2611ea6565b61143a565b5b6109e7576040517f08c379a00000000000000000000000000000000000000000000000000000000081526004016109de90613ec3565b60405180910390fd5b6109f18383611eae565b505050565b6060600c8383604051610a0a929190613f13565b90815260200160405180910390208054610a2390613cfb565b80601f0160208091040260200160405190810160405280929190818152602001828054610a4f90613cfb565b8015610a9c5780601f10610a7157610100808354040283529160200191610a9c565b820191906000526020600020905b815481529060010190602001808311610a7f57829003601f168201915b5050505050905092915050565b610aba610ab4611ea6565b82611f67565b610af9576040517f08c379a0000000000000000000000000000000000000000000000000000000008152600401610af090613f9e565b60405180910390fd5b610b04838383612045565b505050565b600b818051602081018201805184825260208301602085012081835280955050505050506000915054906101000a900473ffffffffffffffffffffffffffffffffffffffff1681565b60088054610b5f90613cfb565b80601f0160208091040260200160405190810160405280929190818152602001828054610b8b90613cfb565b8015610bd85780601f10610bad57610100808354040283529160200191610bd8565b820191906000526020600020905b815481529060010190602001808311610bbb57829003601f168201915b505050505081565b610be8611060565b610bf157600080fd5b600047905060003373ffffffffffffffffffffffffffffffffffffffff1682604051610c1c90613fef565b60006040518083038185875af1925050503d8060008114610c59576040519150601f19603f3d011682016040523d82523d6000602084013e610c5e565b606091505b5050905080610ca2576040517f08c379a0000000000000000000000000000000000000000000000000000000008152600401610c9990614050565b60405180910390fd5b5050565b610cc183838360405180602001604052806000815250611160565b505050565b600d6020528060005260406000206000915090508054610ce590613cfb565b80601f0160208091040260200160405190810160405280929190818152602001828054610d1190613cfb565b8015610d5e5780601f10610d3357610100808354040283529160200191610d5e565b820191906000526020600020905b815481529060010190602001808311610d4157829003601f168201915b505050505081565b60006003610db784848080601f016020809104026020016040519081016040528093929190818152602001838380828437600081840152601f19601f820116905080830192505050505050506122ac565b10158015610e125750600a610e0f84848080601f016020809104026020016040519081016040528093929190818152602001838380828437600081840152601f19601f820116905080830192505050505050506122ac565b11155b905092915050565b600c818051602081018201805184825260208301602085012081835280955050505050506000915090508054610e4f90613cfb565b80601f0160208091040260200160405190810160405280929190818152602001828054610e7b90613cfb565b8015610ec85780601f10610e9d57610100808354040283529160200191610ec8565b820191906000526020600020905b815481529060010190602001808311610eab57829003601f168201915b505050505081565b6000806002600084815260200190815260200160002060009054906101000a900473ffffffffffffffffffffffffffffffffffffffff169050600073ffffffffffffffffffffffffffffffffffffffff168173ffffffffffffffffffffffffffffffffffffffff161415610f79576040517f08c379a0000000000000000000000000000000000000000000000000000000008152600401610f70906140e2565b60405180910390fd5b80915050919050565b60008073ffffffffffffffffffffffffffffffffffffffff168273ffffffffffffffffffffffffffffffffffffffff161415610ff3576040517f08c379a0000000000000000000000000000000000000000000000000000000008152600401610fea90614174565b60405180910390fd5b600360008373ffffffffffffffffffffffffffffffffffffffff1673ffffffffffffffffffffffffffffffffffffffff168152602001908152602001600020549050919050565b600e60009054906101000a900473ffffffffffffffffffffffffffffffffffffffff1681565b6000600e60009054906101000a900473ffffffffffffffffffffffffffffffffffffffff1673ffffffffffffffffffffffffffffffffffffffff163373ffffffffffffffffffffffffffffffffffffffff1614905090565b6060600180546110c790613cfb565b80601f01602080910402602001604051908101604052809291908181526020018280546110f390613cfb565b80156111405780601f1061111557610100808354040283529160200191611140565b820191906000526020600020905b81548152906001019060200180831161112357829003601f168201915b5050505050905090565b61115c611155611ea6565b8383612461565b5050565b61117161116b611ea6565b83611f67565b6111b0576040517f08c379a00000000000000000000000000000000000000000000000000000000081526004016111a790613f9e565b60405180910390fd5b6111bc848484846125ce565b50505050565b6000600b83836040516111d6929190613f13565b908152602001604051809103902060009054906101000a900473ffffffffffffffffffffffffffffffffffffffff16905092915050565b3373ffffffffffffffffffffffffffffffffffffffff16600b8585604051611236929190613f13565b908152602001604051809103902060009054906101000a900473ffffffffffffffffffffffffffffffffffffffff1673ffffffffffffffffffffffffffffffffffffffff16146112b2576040517f82b4290000000000000000000000000000000000000000000000000000000000815260040160405180910390fd5b8181600c86866040516112c6929190613f13565b908152602001604051809103902091906112e192919061325e565b5050505050565b60606112f382611e3a565b611332576040517f08c379a000000000000000000000000000000000000000000000000000000000815260040161132990614206565b60405180910390fd5b600060066000848152602001908152602001600020805461135290613cfb565b80601f016020809104026020016040519081016040528092919081815260200182805461137e90613cfb565b80156113cb5780601f106113a0576101008083540402835291602001916113cb565b820191906000526020600020905b8154815290600101906020018083116113ae57829003601f168201915b5050505050905060006113dc61262a565b90506000815114156113f2578192505050611435565b60008251111561142757808260405160200161140f929190614257565b60405160208183030381529060405292505050611435565b61143084612641565b925050505b919050565b6000600560008473ffffffffffffffffffffffffffffffffffffffff1673ffffffffffffffffffffffffffffffffffffffff16815260200190815260200160002060008373ffffffffffffffffffffffffffffffffffffffff1673ffffffffffffffffffffffffffffffffffffffff16815260200190815260200160002060009054906101000a900460ff16905092915050565b600073ffffffffffffffffffffffffffffffffffffffff16600b83836040516114f8929190613f13565b908152602001604051809103902060009054906101000a900473ffffffffffffffffffffffffffffffffffffffff1673ffffffffffffffffffffffffffffffffffffffff1614611574576040517f3a81d6fc00000000000000000000000000000000000000000000000000000000815260040160405180910390fd5b61157e8282610d66565b6115c15781816040517f7f19f48d0000000000000000000000000000000000000000000000000000000081526004016115b89291906142a8565b60405180910390fd5b60006115cd8383611c8e565b90506116536040518060400160405280601781526020017f507269636520666f72206e616d6520257320697320257500000000000000000081525084848080601f016020809104026020016040519081016040528093929190818152602001838380828437600081840152601f19601f82011690508083019250505050505050836126e8565b6116926040518060400160405280600c81526020017f6d732e76616c756520697320000000000000000000000000000000000000000081525034612787565b803410156116d5576040517f08c379a00000000000000000000000000000000000000000000000000000000081526004016116cc90614318565b60405180910390fd5b6000838360086040516020016116ed93929190614418565b60405160208183030381529060405290506000600982600a60405160200161171793929190614449565b604051602081830303815290604052905060006117346007612823565b9050600061178587878080601f016020809104026020016040519081016040528093929190818152602001838380828437600081840152601f19601f820116905080830192505050505050506122ac565b9050600061179282612831565b905061188660405180606001604052806033815260200161508a6033913989898080601f016020809104026020016040519081016040528093929190818152602001838380828437600081840152601f19601f820116905080830192505050505050506008805461180290613cfb565b80601f016020809104026020016040519081016040528092919081815260200182805461182e90613cfb565b801561187b5780601f106118505761010080835404028352916020019161187b565b820191906000526020600020905b81548152906001019060200180831161185e57829003601f168201915b505050505086612992565b60006118bc8661189587612a34565b846040516020016118a89392919061461c565b604051602081830303815290604052612a34565b90506000816040516020016118d191906146c5565b60405160208183030381529060405290506119206040518060400160405280601281526020017f0a2d2d2d2d2d2d2d2d2d2d2d2d2d2d2d2d2d0000000000000000000000000000815250612bcc565b61195f6040518060400160405280601081526020017f46696e616c546f6b656e557269203d200000000000000000000000000000000081525082611d34565b61199d6040518060400160405280601481526020017f2d2d2d2d2d2d2d2d2d2d2d2d2d2d2d2d2d2d2d0a000000000000000000000000815250612bcc565b6119a73386612c65565b6119b18582612c83565b33600b8b8b6040516119c4929190613f13565b908152602001604051809103902060006101000a81548173ffffffffffffffffffffffffffffffffffffffff021916908373ffffffffffffffffffffffffffffffffffffffff160217905550611a7760405180606001604052806023815260200161502760239139338c8c8080601f016020809104026020016040519081016040528093929190818152602001838380828437600081840152601f19601f82011690508083019250505050505050612cf7565b8989600d60008881526020019081526020016000209190611a9992919061325e565b50611aa46007612d96565b50505050505050505050565b6060611af06040518060400160405280601881526020017f47657474696e6720616c6c20646f6d61696e206e616d65730000000000000000815250612bcc565b6000611afc6007612823565b67ffffffffffffffff811115611b1557611b14613746565b5b604051908082528060200260200182016040528015611b4857816020015b6060815260200190600190039081611b335790505b50905060005b611b586007612823565b811015611c8657600d60008281526020019081526020016000208054611b7d90613cfb565b80601f0160208091040260200160405190810160405280929190818152602001828054611ba990613cfb565b8015611bf65780601f10611bcb57610100808354040283529160200191611bf6565b820191906000526020600020905b815481529060010190602001808311611bd957829003601f168201915b5050505050828281518110611c0e57611c0d6146e7565b5b6020026020010181905250611c736040518060400160405280601781526020017f4e616d6520666f7220746f6b656e20256420697320257300000000000000000081525082848481518110611c6657611c656146e7565b5b6020026020010151612dac565b8080611c7e90614745565b915050611b4e565b508091505090565b600080611cde84848080601f016020809104026020016040519081016040528093929190818152602001838380828437600081840152601f19601f820116905080830192505050505050506122ac565b905060008111611ced57600080fd5b6003811415611d07576706f05b59d3b20000915050611d2e565b6004811415611d2157670429d069189e0000915050611d2e565b67016345785d8a00009150505b92915050565b611dcc8282604051602401611d4a92919061478e565b6040516020818303038152906040527f4b5c4277000000000000000000000000000000000000000000000000000000007bffffffffffffffffffffffffffffffffffffffffffffffffffffffff19166020820180517bffffffffffffffffffffffffffffffffffffffffffffffffffffffff8381831617835250505050612e4b565b5050565b60007f01ffc9a7000000000000000000000000000000000000000000000000000000007bffffffffffffffffffffffffffffffffffffffffffffffffffffffff1916827bffffffffffffffffffffffffffffffffffffffffffffffffffffffff1916149050919050565b60008073ffffffffffffffffffffffffffffffffffffffff166002600084815260200190815260200160002060009054906101000a900473ffffffffffffffffffffffffffffffffffffffff1673ffffffffffffffffffffffffffffffffffffffff1614159050919050565b600033905090565b816004600083815260200190815260200160002060006101000a81548173ffffffffffffffffffffffffffffffffffffffff021916908373ffffffffffffffffffffffffffffffffffffffff160217905550808273ffffffffffffffffffffffffffffffffffffffff16611f2183610ed0565b73ffffffffffffffffffffffffffffffffffffffff167f8c5be1e5ebec7d5bd14f71427d1e84f3dd0314c0f7b2291e5b200ac8c7c3b92560405160405180910390a45050565b6000611f7282611e3a565b611fb1576040517f08c379a0000000000000000000000000000000000000000000000000000000008152600401611fa890614837565b60405180910390fd5b6000611fbc83610ed0565b90508073ffffffffffffffffffffffffffffffffffffffff168473ffffffffffffffffffffffffffffffffffffffff16148061202b57508373ffffffffffffffffffffffffffffffffffffffff1661201384610859565b73ffffffffffffffffffffffffffffffffffffffff16145b8061203c575061203b818561143a565b5b91505092915050565b8273ffffffffffffffffffffffffffffffffffffffff1661206582610ed0565b73ffffffffffffffffffffffffffffffffffffffff16146120bb576040517f08c379a00000000000000000000000000000000000000000000000000000000081526004016120b2906148c9565b60405180910390fd5b600073ffffffffffffffffffffffffffffffffffffffff168273ffffffffffffffffffffffffffffffffffffffff16141561212b576040517f08c379a00000000000000000000000000000000000000000000000000000000081526004016121229061495b565b60405180910390fd5b612136838383612e74565b612141600082611eae565b6001600360008573ffffffffffffffffffffffffffffffffffffffff1673ffffffffffffffffffffffffffffffffffffffff1681526020019081526020016000206000828254612191919061497b565b925050819055506001600360008473ffffffffffffffffffffffffffffffffffffffff1673ffffffffffffffffffffffffffffffffffffffff16815260200190815260200160002060008282546121e891906149af565b92505081905550816002600083815260200190815260200160002060006101000a81548173ffffffffffffffffffffffffffffffffffffffff021916908373ffffffffffffffffffffffffffffffffffffffff160217905550808273ffffffffffffffffffffffffffffffffffffffff168473ffffffffffffffffffffffffffffffffffffffff167fddf252ad1be2c89b69c2b068fc378daa952ba7f163c4a11628f55a4df523b3ef60405160405180910390a46122a7838383612e79565b505050565b60008060008084519050600092505b808210156124565760008583815181106122d8576122d76146e7565b5b602001015160f81c60f81b9050608060f81b817effffffffffffffffffffffffffffffffffffffffffffffffffffffffffffff191610156123275760018361232091906149af565b9250612442565b60e060f81b817effffffffffffffffffffffffffffffffffffffffffffffffffffffffffffff191610156123695760028361236291906149af565b9250612441565b60f060f81b817effffffffffffffffffffffffffffffffffffffffffffffffffffffffffffff191610156123ab576003836123a491906149af565b9250612440565b60f8801b817effffffffffffffffffffffffffffffffffffffffffffffffffffffffffffff191610156123ec576004836123e591906149af565b925061243f565b60fc60f81b817effffffffffffffffffffffffffffffffffffffffffffffffffffffffffffff1916101561242e5760058361242791906149af565b925061243e565b60068361243b91906149af565b92505b5b5b5b5b50828061244e90614745565b9350506122bb565b829350505050919050565b8173ffffffffffffffffffffffffffffffffffffffff168373ffffffffffffffffffffffffffffffffffffffff1614156124d0576040517f08c379a00000000000000000000000000000000000000000000000000000000081526004016124c790614a51565b60405180910390fd5b80600560008573ffffffffffffffffffffffffffffffffffffffff1673ffffffffffffffffffffffffffffffffffffffff16815260200190815260200160002060008473ffffffffffffffffffffffffffffffffffffffff1673ffffffffffffffffffffffffffffffffffffffff16815260200190815260200160002060006101000a81548160ff0219169083151502179055508173ffffffffffffffffffffffffffffffffffffffff168373ffffffffffffffffffffffffffffffffffffffff167f17307eab39ab6107e8899845ad3d59bd9653f200f220920489ca2b5937696c31836040516125c1919061343b565b60405180910390a3505050565b6125d9848484612045565b6125e584848484612e7e565b612624576040517f08c379a000000000000000000000000000000000000000000000000000000000815260040161261b90614ae3565b60405180910390fd5b50505050565b606060405180602001604052806000815250905090565b606061264c82611e3a565b61268b576040517f08c379a000000000000000000000000000000000000000000000000000000000815260040161268290614b75565b60405180910390fd5b600061269561262a565b905060008151116126b557604051806020016040528060008152506126e0565b806126bf84612831565b6040516020016126d0929190614257565b6040516020818303038152906040525b915050919050565b61278283838360405160240161270093929190614b95565b6040516020818303038152906040527ff362ca59000000000000000000000000000000000000000000000000000000007bffffffffffffffffffffffffffffffffffffffffffffffffffffffff19166020820180517bffffffffffffffffffffffffffffffffffffffffffffffffffffffff8381831617835250505050612e4b565b505050565b61281f828260405160240161279d929190614bda565b6040516020818303038152906040527f9710a9d0000000000000000000000000000000000000000000000000000000007bffffffffffffffffffffffffffffffffffffffffffffffffffffffff19166020820180517bffffffffffffffffffffffffffffffffffffffffffffffffffffffff8381831617835250505050612e4b565b5050565b600081600001549050919050565b60606000821415612879576040518060400160405280600181526020017f3000000000000000000000000000000000000000000000000000000000000000815250905061298d565b600082905060005b600082146128ab57808061289490614745565b915050600a826128a49190614c39565b9150612881565b60008167ffffffffffffffff8111156128c7576128c6613746565b5b6040519080825280601f01601f1916602001820160405280156128f95781602001600182028036833780820191505090505b5090505b6000851461298657600182612912919061497b565b9150600a856129219190614c6a565b603061292d91906149af565b60f81b818381518110612943576129426146e7565b5b60200101907effffffffffffffffffffffffffffffffffffffffffffffffffffffffffffff1916908160001a905350600a8561297f9190614c39565b94506128fd565b8093505050505b919050565b612a2e848484846040516024016129ac9493929190614c9b565b6040516020818303038152906040527f9fd009f5000000000000000000000000000000000000000000000000000000007bffffffffffffffffffffffffffffffffffffffffffffffffffffffff19166020820180517bffffffffffffffffffffffffffffffffffffffffffffffffffffffff8381831617835250505050612e4b565b50505050565b60606000825190506000811415612a5d5760405180602001604052806000815250915050612bc7565b60006003600283612a6e91906149af565b612a789190614c39565b6004612a849190614cf5565b90506000602082612a9591906149af565b67ffffffffffffffff811115612aae57612aad613746565b5b6040519080825280601f01601f191660200182016040528015612ae05781602001600182028036833780820191505090505b509050600060405180606001604052806040815260200161504a604091399050600181016020830160005b86811015612b845760038101905062ffffff818a015116603f8160121c168401518060081b905060ff603f83600c1c1686015116810190508060081b905060ff603f8360061c1686015116810190508060081b905060ff603f831686015116810190508060e01b90508084526004840193505050612b0b565b506003860660018114612b9e5760028114612bae57612bb9565b613d3d60f01b6002830352612bb9565b603d60f81b60018303525b508484525050819450505050505b919050565b612c6281604051602401612be091906134ef565b6040516020818303038152906040527f41304fac000000000000000000000000000000000000000000000000000000007bffffffffffffffffffffffffffffffffffffffffffffffffffffffff19166020820180517bffffffffffffffffffffffffffffffffffffffffffffffffffffffff8381831617835250505050612e4b565b50565b612c7f828260405180602001604052806000815250613006565b5050565b612c8c82611e3a565b612ccb576040517f08c379a0000000000000000000000000000000000000000000000000000000008152600401612cc290614dc1565b60405180910390fd5b80600660008481526020019081526020016000209080519060200190612cf29291906132e4565b505050565b612d91838383604051602401612d0f93929190614de1565b6040516020818303038152906040527fe0e9ad4f000000000000000000000000000000000000000000000000000000007bffffffffffffffffffffffffffffffffffffffffffffffffffffffff19166020820180517bffffffffffffffffffffffffffffffffffffffffffffffffffffffff8381831617835250505050612e4b565b505050565b6001816000016000828254019250508190555050565b612e46838383604051602401612dc493929190614e26565b6040516020818303038152906040527fa3f5c739000000000000000000000000000000000000000000000000000000007bffffffffffffffffffffffffffffffffffffffffffffffffffffffff19166020820180517bffffffffffffffffffffffffffffffffffffffffffffffffffffffff8381831617835250505050612e4b565b505050565b60008151905060006a636f6e736f6c652e6c6f679050602083016000808483855afa5050505050565b505050565b505050565b6000612e9f8473ffffffffffffffffffffffffffffffffffffffff16613061565b15612ff9578373ffffffffffffffffffffffffffffffffffffffff1663150b7a02612ec8611ea6565b8786866040518563ffffffff1660e01b8152600401612eea9493929190614ec0565b6020604051808303816000875af1925050508015612f2657506040513d601f19601f82011682018060405250810190612f239190614f21565b60015b612fa9573d8060008114612f56576040519150601f19603f3d011682016040523d82523d6000602084013e612f5b565b606091505b50600081511415612fa1576040517f08c379a0000000000000000000000000000000000000000000000000000000008152600401612f9890614ae3565b60405180910390fd5b805181602001fd5b63150b7a0260e01b7bffffffffffffffffffffffffffffffffffffffffffffffffffffffff1916817bffffffffffffffffffffffffffffffffffffffffffffffffffffffff191614915050612ffe565b600190505b949350505050565b6130108383613084565b61301d6000848484612e7e565b61305c576040517f08c379a000000000000000000000000000000000000000000000000000000000815260040161305390614ae3565b60405180910390fd5b505050565b6000808273ffffffffffffffffffffffffffffffffffffffff163b119050919050565b600073ffffffffffffffffffffffffffffffffffffffff168273ffffffffffffffffffffffffffffffffffffffff1614156130f4576040517f08c379a00000000000000000000000000000000000000000000000000000000081526004016130eb90614f9a565b60405180910390fd5b6130fd81611e3a565b1561313d576040517f08c379a000000000000000000000000000000000000000000000000000000000815260040161313490615006565b60405180910390fd5b61314960008383612e74565b6001600360008473ffffffffffffffffffffffffffffffffffffffff1673ffffffffffffffffffffffffffffffffffffffff168152602001908152602001600020600082825461319991906149af565b92505081905550816002600083815260200190815260200160002060006101000a81548173ffffffffffffffffffffffffffffffffffffffff021916908373ffffffffffffffffffffffffffffffffffffffff160217905550808273ffffffffffffffffffffffffffffffffffffffff16600073ffffffffffffffffffffffffffffffffffffffff167fddf252ad1be2c89b69c2b068fc378daa952ba7f163c4a11628f55a4df523b3ef60405160405180910390a461325a60008383612e79565b5050565b82805461326a90613cfb565b90600052602060002090601f01602090048101928261328c57600085556132d3565b82601f106132a557803560ff19168380011785556132d3565b828001600101855582156132d3579182015b828111156132d25782358255916020019190600101906132b7565b5b5090506132e0919061336a565b5090565b8280546132f090613cfb565b90600052602060002090601f0160209004810192826133125760008555613359565b82601f1061332b57805160ff1916838001178555613359565b82800160010185558215613359579182015b8281111561335857825182559160200191906001019061333d565b5b509050613366919061336a565b5090565b5b8082111561338357600081600090555060010161336b565b5090565b6000604051905090565b600080fd5b600080fd5b60007fffffffff0000000000000000000000000000000000000000000000000000000082169050919050565b6133d08161339b565b81146133db57600080fd5b50565b6000813590506133ed816133c7565b92915050565b60006020828403121561340957613408613391565b5b6000613417848285016133de565b91505092915050565b60008115159050919050565b61343581613420565b82525050565b6000602082019050613450600083018461342c565b92915050565b600081519050919050565b600082825260208201905092915050565b60005b83811015613490578082015181840152602081019050613475565b8381111561349f576000848401525b50505050565b6000601f19601f8301169050919050565b60006134c182613456565b6134cb8185613461565b93506134db818560208601613472565b6134e4816134a5565b840191505092915050565b6000602082019050818103600083015261350981846134b6565b905092915050565b6000819050919050565b61352481613511565b811461352f57600080fd5b50565b6000813590506135418161351b565b92915050565b60006020828403121561355d5761355c613391565b5b600061356b84828501613532565b91505092915050565b600073ffffffffffffffffffffffffffffffffffffffff82169050919050565b600061359f82613574565b9050919050565b6135af81613594565b82525050565b60006020820190506135ca60008301846135a6565b92915050565b6135d981613594565b81146135e457600080fd5b50565b6000813590506135f6816135d0565b92915050565b6000806040838503121561361357613612613391565b5b6000613621858286016135e7565b925050602061363285828601613532565b9150509250929050565b600080fd5b600080fd5b600080fd5b60008083601f8401126136615761366061363c565b5b8235905067ffffffffffffffff81111561367e5761367d613641565b5b60208301915083600182028301111561369a57613699613646565b5b9250929050565b600080602083850312156136b8576136b7613391565b5b600083013567ffffffffffffffff8111156136d6576136d5613396565b5b6136e28582860161364b565b92509250509250929050565b60008060006060848603121561370757613706613391565b5b6000613715868287016135e7565b9350506020613726868287016135e7565b925050604061373786828701613532565b9150509250925092565b600080fd5b7f4e487b7100000000000000000000000000000000000000000000000000000000600052604160045260246000fd5b61377e826134a5565b810181811067ffffffffffffffff8211171561379d5761379c613746565b5b80604052505050565b60006137b0613387565b90506137bc8282613775565b919050565b600067ffffffffffffffff8211156137dc576137db613746565b5b6137e5826134a5565b9050602081019050919050565b82818337600083830152505050565b600061381461380f846137c1565b6137a6565b9050828152602081018484840111156138305761382f613741565b5b61383b8482856137f2565b509392505050565b600082601f8301126138585761385761363c565b5b8135613868848260208601613801565b91505092915050565b60006020828403121561388757613886613391565b5b600082013567ffffffffffffffff8111156138a5576138a4613396565b5b6138b184828501613843565b91505092915050565b6000602082840312156138d0576138cf613391565b5b60006138de848285016135e7565b91505092915050565b6138f081613511565b82525050565b600060208201905061390b60008301846138e7565b92915050565b600061391c82613574565b9050919050565b61392c81613911565b82525050565b60006020820190506139476000830184613923565b92915050565b61395681613420565b811461396157600080fd5b50565b6000813590506139738161394d565b92915050565b600080604083850312156139905761398f613391565b5b600061399e858286016135e7565b92505060206139af85828601613964565b9150509250929050565b600067ffffffffffffffff8211156139d4576139d3613746565b5b6139dd826134a5565b9050602081019050919050565b60006139fd6139f8846139b9565b6137a6565b905082815260208101848484011115613a1957613a18613741565b5b613a248482856137f2565b509392505050565b600082601f830112613a4157613a4061363c565b5b8135613a518482602086016139ea565b91505092915050565b60008060008060808587031215613a7457613a73613391565b5b6000613a82878288016135e7565b9450506020613a93878288016135e7565b9350506040613aa487828801613532565b925050606085013567ffffffffffffffff811115613ac557613ac4613396565b5b613ad187828801613a2c565b91505092959194509250565b60008060008060408587031215613af757613af6613391565b5b600085013567ffffffffffffffff811115613b1557613b14613396565b5b613b218782880161364b565b9450945050602085013567ffffffffffffffff811115613b4457613b43613396565b5b613b508782880161364b565b925092505092959194509250565b60008060408385031215613b7557613b74613391565b5b6000613b83858286016135e7565b9250506020613b94858286016135e7565b9150509250929050565b600081519050919050565b600082825260208201905092915050565b6000819050602082019050919050565b600082825260208201905092915050565b6000613be682613456565b613bf08185613bca565b9350613c00818560208601613472565b613c09816134a5565b840191505092915050565b6000613c208383613bdb565b905092915050565b6000602082019050919050565b6000613c4082613b9e565b613c4a8185613ba9565b935083602082028501613c5c85613bba565b8060005b85811015613c985784840389528151613c798582613c14565b9450613c8483613c28565b925060208a01995050600181019050613c60565b50829750879550505050505092915050565b60006020820190508181036000830152613cc48184613c35565b905092915050565b7f4e487b7100000000000000000000000000000000000000000000000000000000600052602260045260246000fd5b60006002820490506001821680613d1357607f821691505b60208210811415613d2757613d26613ccc565b5b50919050565b7f4552433732313a20617070726f76656420717565727920666f72206e6f6e657860008201527f697374656e7420746f6b656e0000000000000000000000000000000000000000602082015250565b6000613d89602c83613461565b9150613d9482613d2d565b604082019050919050565b60006020820190508181036000830152613db881613d7c565b9050919050565b7f4552433732313a20617070726f76616c20746f2063757272656e74206f776e6560008201527f7200000000000000000000000000000000000000000000000000000000000000602082015250565b6000613e1b602183613461565b9150613e2682613dbf565b604082019050919050565b60006020820190508181036000830152613e4a81613e0e565b9050919050565b7f4552433732313a20617070726f76652063616c6c6572206973206e6f74206f7760008201527f6e6572206e6f7220617070726f76656420666f7220616c6c0000000000000000602082015250565b6000613ead603883613461565b9150613eb882613e51565b604082019050919050565b60006020820190508181036000830152613edc81613ea0565b9050919050565b600081905092915050565b6000613efa8385613ee3565b9350613f078385846137f2565b82840190509392505050565b6000613f20828486613eee565b91508190509392505050565b7f4552433732313a207472616e736665722063616c6c6572206973206e6f74206f60008201527f776e6572206e6f7220617070726f766564000000000000000000000000000000602082015250565b6000613f88603183613461565b9150613f9382613f2c565b604082019050919050565b60006020820190508181036000830152613fb781613f7b565b9050919050565b600081905092915050565b50565b6000613fd9600083613fbe565b9150613fe482613fc9565b600082019050919050565b6000613ffa82613fcc565b9150819050919050565b7f4661696c656420746f207769746864726177204d617469630000000000000000600082015250565b600061403a601883613461565b915061404582614004565b602082019050919050565b600060208201905081810360008301526140698161402d565b9050919050565b7f4552433732313a206f776e657220717565727920666f72206e6f6e657869737460008201527f656e7420746f6b656e0000000000000000000000000000000000000000000000602082015250565b60006140cc602983613461565b91506140d782614070565b604082019050919050565b600060208201905081810360008301526140fb816140bf565b9050919050565b7f4552433732313a2062616c616e636520717565727920666f7220746865207a6560008201527f726f206164647265737300000000000000000000000000000000000000000000602082015250565b600061415e602a83613461565b915061416982614102565b604082019050919050565b6000602082019050818103600083015261418d81614151565b9050919050565b7f45524337323155524953746f726167653a2055524920717565727920666f722060008201527f6e6f6e6578697374656e7420746f6b656e000000000000000000000000000000602082015250565b60006141f0603183613461565b91506141fb82614194565b604082019050919050565b6000602082019050818103600083015261421f816141e3565b9050919050565b600061423182613456565b61423b8185613ee3565b935061424b818560208601613472565b80840191505092915050565b60006142638285614226565b915061426f8284614226565b91508190509392505050565b60006142878385613461565b93506142948385846137f2565b61429d836134a5565b840190509392505050565b600060208201905081810360008301526142c381848661427b565b90509392505050565b7f4e6f7420656e6f756768204d6174696320706169640000000000000000000000600082015250565b6000614302601583613461565b915061430d826142cc565b602082019050919050565b60006020820190508181036000830152614331816142f5565b9050919050565b7f2e00000000000000000000000000000000000000000000000000000000000000600082015250565b600061436e600183613ee3565b915061437982614338565b600182019050919050565b60008190508160005260206000209050919050565b600081546143a681613cfb565b6143b08186613ee3565b945060018216600081146143cb57600181146143dc5761440f565b60ff1983168652818601935061440f565b6143e585614384565b60005b83811015614407578154818901526001820191506020810190506143e8565b838801955050505b50505092915050565b6000614425828587613eee565b915061443082614361565b915061443c8284614399565b9150819050949350505050565b60006144558286614399565b91506144618285614226565b915061446d8284614399565b9150819050949350505050565b7f7b226e616d65223a220000000000000000000000000000000000000000000000600082015250565b60006144b0600983613ee3565b91506144bb8261447a565b600982019050919050565b7f222c20226465736372697074696f6e22203a202254686973206973206120646f60008201527f6d61696e206e616d652073657276696365206f6e206173206675636b20646f6d60208201527f61696e222c2022696d616765223a2022646174613a696d6167652f7376672b7860408201527f6d6c3b6261736536342c00000000000000000000000000000000000000000000606082015250565b600061456e606a83613ee3565b9150614579826144c6565b606a82019050919050565b7f222c20226c656e67746822203a20220000000000000000000000000000000000600082015250565b60006145ba600f83613ee3565b91506145c582614584565b600f82019050919050565b7f227d000000000000000000000000000000000000000000000000000000000000600082015250565b6000614606600283613ee3565b9150614611826145d0565b600282019050919050565b6000614627826144a3565b91506146338286614226565b915061463e82614561565b915061464a8285614226565b9150614655826145ad565b91506146618284614226565b915061466c826145f9565b9150819050949350505050565b7f646174613a6170706c69636174696f6e2f6a736f6e3b6261736536342c000000600082015250565b60006146af601d83613ee3565b91506146ba82614679565b601d82019050919050565b60006146d0826146a2565b91506146dc8284614226565b915081905092915050565b7f4e487b7100000000000000000000000000000000000000000000000000000000600052603260045260246000fd5b7f4e487b7100000000000000000000000000000000000000000000000000000000600052601160045260246000fd5b600061475082613511565b91507fffffffffffffffffffffffffffffffffffffffffffffffffffffffffffffffff82141561478357614782614716565b5b600182019050919050565b600060408201905081810360008301526147a881856134b6565b905081810360208301526147bc81846134b6565b90509392505050565b7f4552433732313a206f70657261746f7220717565727920666f72206e6f6e657860008201527f697374656e7420746f6b656e0000000000000000000000000000000000000000602082015250565b6000614821602c83613461565b915061482c826147c5565b604082019050919050565b6000602082019050818103600083015261485081614814565b9050919050565b7f4552433732313a207472616e736665722066726f6d20696e636f72726563742060008201527f6f776e6572000000000000000000000000000000000000000000000000000000602082015250565b60006148b3602583613461565b91506148be82614857565b604082019050919050565b600060208201905081810360008301526148e2816148a6565b9050919050565b7f4552433732313a207472616e7366657220746f20746865207a65726f2061646460008201527f7265737300000000000000000000000000000000000000000000000000000000602082015250565b6000614945602483613461565b9150614950826148e9565b604082019050919050565b6000602082019050818103600083015261497481614938565b9050919050565b600061498682613511565b915061499183613511565b9250828210156149a4576149a3614716565b5b828203905092915050565b60006149ba82613511565b91506149c583613511565b9250827fffffffffffffffffffffffffffffffffffffffffffffffffffffffffffffffff038211156149fa576149f9614716565b5b828201905092915050565b7f4552433732313a20617070726f766520746f2063616c6c657200000000000000600082015250565b6000614a3b601983613461565b9150614a4682614a05565b602082019050919050565b60006020820190508181036000830152614a6a81614a2e565b9050919050565b7f4552433732313a207472616e7366657220746f206e6f6e20455243373231526560008201527f63656976657220696d706c656d656e7465720000000000000000000000000000602082015250565b6000614acd603283613461565b9150614ad882614a71565b604082019050919050565b60006020820190508181036000830152614afc81614ac0565b9050919050565b7f4552433732314d657461646174613a2055524920717565727920666f72206e6f60008201527f6e6578697374656e7420746f6b656e0000000000000000000000000000000000602082015250565b6000614b5f602f83613461565b9150614b6a82614b03565b604082019050919050565b60006020820190508181036000830152614b8e81614b52565b9050919050565b60006060820190508181036000830152614baf81866134b6565b90508181036020830152614bc381856134b6565b9050614bd260408301846138e7565b949350505050565b60006040820190508181036000830152614bf481856134b6565b9050614c0360208301846138e7565b9392505050565b7f4e487b7100000000000000000000000000000000000000000000000000000000600052601260045260246000fd5b6000614c4482613511565b9150614c4f83613511565b925082614c5f57614c5e614c0a565b5b828204905092915050565b6000614c7582613511565b9150614c8083613511565b925082614c9057614c8f614c0a565b5b828206905092915050565b60006080820190508181036000830152614cb581876134b6565b90508181036020830152614cc981866134b6565b90508181036040830152614cdd81856134b6565b9050614cec60608301846138e7565b95945050505050565b6000614d0082613511565b9150614d0b83613511565b9250817fffffffffffffffffffffffffffffffffffffffffffffffffffffffffffffffff0483118215151615614d4457614d43614716565b5b828202905092915050565b7f45524337323155524953746f726167653a2055524920736574206f66206e6f6e60008201527f6578697374656e7420746f6b656e000000000000000000000000000000000000602082015250565b6000614dab602e83613461565b9150614db682614d4f565b604082019050919050565b60006020820190508181036000830152614dda81614d9e565b9050919050565b60006060820190508181036000830152614dfb81866134b6565b9050614e0a60208301856135a6565b8181036040830152614e1c81846134b6565b9050949350505050565b60006060820190508181036000830152614e4081866134b6565b9050614e4f60208301856138e7565b8181036040830152614e6181846134b6565b9050949350505050565b600081519050919050565b600082825260208201905092915050565b6000614e9282614e6b565b614e9c8185614e76565b9350614eac818560208601613472565b614eb5816134a5565b840191505092915050565b6000608082019050614ed560008301876135a6565b614ee260208301866135a6565b614eef60408301856138e7565b8181036060830152614f018184614e87565b905095945050505050565b600081519050614f1b816133c7565b92915050565b600060208284031215614f3757614f36613391565b5b6000614f4584828501614f0c565b91505092915050565b7f4552433732313a206d696e7420746f20746865207a65726f2061646472657373600082015250565b6000614f84602083613461565b9150614f8f82614f4e565b602082019050919050565b60006020820190508181036000830152614fb381614f77565b9050919050565b7f4552433732313a20746f6b656e20616c7265616479206d696e74656400000000600082015250565b6000614ff0601c83613461565b9150614ffb82614fba565b602082019050919050565b6000602082019050818103600083015261501f81614fe3565b905091905056fe2573206861732072656769737465726564206120646f6d61696e206e616d65642025734142434445464748494a4b4c4d4e4f505152535455565758595a6162636465666768696a6b6c6d6e6f707172737475767778797a303132333435363738392b2f5265676973746572696e672025732e2573206f6e2074686520636f6e7472616374207769746820746f6b656e4964203d202573a264697066735822122003e9daf17b80355cfaa49b1cdd9e9dcafd6860f775de4ff15b68ae91b753569a64736f6c634300080a00332573206e616d65207365727669636520686173206265656e206465706c6f7965643c73766720786d6c6e733d22687474703a2f2f7777772e77332e6f72672f323030302f737667222077696474683d2232373022206865696768743d22323730222066696c6c3d226e6f6e65223e3c706174682066696c6c3d2275726c282342292220643d224d302030683237307632373048307a222f3e3c646566733e3c66696c7465722069643d22412220636f6c6f722d696e746572706f6c6174696f6e2d66696c746572733d2273524742222066696c746572556e6974733d227573657253706163654f6e55736522206865696768743d22323730222077696474683d22323730223e3c666544726f70536861646f772064783d2230222064793d22312220737464446576696174696f6e3d22322220666c6f6f642d6f7061636974793d222e323235222077696474683d223230302522206865696768743d2232303025222f3e3c2f66696c7465723e3c2f646566733e3c7061746820643d224d37322e3836332034322e393439632d2e3636382d2e3338372d312e3432362d2e35392d322e3139372d2e3539732d312e3532392e3230342d322e3139372e35396c2d31302e30383120362e3033322d362e383520332e3933342d31302e30383120362e303332632d2e3636382e3338372d312e3432362e35392d322e3139372e3539732d312e3532392d2e3230342d322e3139372d2e35396c2d382e3031332d342e37323161342e353220342e35322030203020312d312e3538392d312e363136632d2e3338342d2e3636352d2e3539342d312e3431382d2e3630382d322e313837762d392e3331632d2e3031332d2e3737352e3138352d312e3533382e3537322d322e32303861342e323520342e323520302030203120312e3632352d312e3539356c372e3838342d342e3539632e3636382d2e33383720312e3432362d2e353920322e3139372d2e353973312e3532392e32303420322e3139372e35396c372e38383420342e353961342e353220342e353220302030203120312e35383920312e363136632e3338342e3636352e35393420312e3431382e36303820322e31383776362e3033326c362e38352d342e303635762d362e303332632e3031332d2e3737352d2e3138352d312e3533382d2e3537322d322e32303861342e323520342e32352030203020302d312e3632352d312e3539354c34312e3435362032342e3539632d2e3636382d2e3338372d312e3432362d2e35392d322e3139372d2e3539732d312e3532392e3230342d322e3139372e35396c2d31342e38363420382e36353561342e323520342e32352030203020302d312e36323520312e353935632d2e3338372e36372d2e35383520312e3433342d2e35373220322e3230387631372e343431632d2e3031332e3737352e31383520312e3533382e35373220322e32303861342e323520342e323520302030203020312e36323520312e3539356c31342e38363420382e363535632e3636382e33383720312e3432362e353920322e3139372e353973312e3532392d2e32303420322e3139372d2e35396c31302e3038312d352e39303120362e38352d342e3036352031302e3038312d352e393031632e3636382d2e33383720312e3432362d2e353920322e3139372d2e353973312e3532392e32303420322e3139372e35396c372e38383420342e353961342e353220342e353220302030203120312e35383920312e363136632e3338342e3636352e35393420312e3431382e36303820322e31383776392e333131632e3031332e3737352d2e31383520312e3533382d2e35373220322e32303861342e323520342e32352030203020312d312e36323520312e3539356c2d372e38383420342e373231632d2e3636382e3338372d312e3432362e35392d322e3139372e3539732d312e3532392d2e3230342d322e3139372d2e35396c2d372e3838342d342e353961342e353220342e35322030203020312d312e3538392d312e363136632d2e3338352d2e3636352d2e3539342d312e3431382d2e3630382d322e313837762d362e3033326c2d362e383520342e30363576362e303332632d2e3031332e3737352e31383520312e3533382e35373220322e32303861342e323520342e323520302030203020312e36323520312e3539356c31342e38363420382e363535632e3636382e33383720312e3432362e353920322e3139372e353973312e3532392d2e32303420322e3139372d2e35396c31342e3836342d382e363535632e3635372d2e33393420312e3230342d2e393520312e3538392d312e363136732e3539342d312e3431382e3630392d322e3138375635352e353338632e3031332d2e3737352d2e3138352d312e3533382d2e3537322d322e32303861342e323520342e32352030203020302d312e3632352d312e3539356c2d31342e3939332d382e3738367a222066696c6c3d2223666666222f3e3c646566733e3c6c696e6561724772616469656e742069643d2242222078313d2230222079313d2230222078323d22323730222079323d2232373022206772616469656e74556e6974733d227573657253706163654f6e557365223e3c73746f702073746f702d636f6c6f723d2223636235656565222f3e3c73746f70206f66667365743d2231222073746f702d636f6c6f723d2223306364376534222073746f702d6f7061636974793d222e3939222f3e3c2f6c696e6561724772616469656e743e3c2f646566733e3c7465787420783d2233322e352220793d223233312220666f6e742d73697a653d223237222066696c6c3d2223666666222066696c7465723d2275726c282341292220666f6e742d66616d696c793d22506c7573204a616b617274612053616e732c44656a6156752053616e732c4e6f746f20436f6c6f7220456d6f6a692c4170706c6520436f6c6f7220456d6f6a692c73616e732d73657269662220666f6e742d7765696768743d22626f6c64223e",
  "linkReferences": {},
  "deployedLinkReferences": {}
}